:020000020000FC
:02000000F1C04D
:040004000C944C010B
:020028004BC1CA
:040040000C942A01F1
:1001E40008E00EBF0FE50DBF0F930AE605BD8F9A19
:1001F40097988A98929800E40BBF01E005BF0DE23E
:1002040003BFB99800E00FBD07E00EBD00E000BDDC
:100214000FEC09B902E00BB908E10AB906E800BD20
:10022400D1980FEC06B901E407B90F9106E403BDB8
:10023400E0E6F0E0A0E6B0E0829BFECF8299FECF3C
:1002440000E00DBD0CBD10E41ABF7894369AFFCFC0
:1002540004B115B1213049F00C3718F4093408F011
:100264000EC021E00E9444010AC0043608F007C011
:100274000F3508F404C020E00E94440100C0369AFF
:10028400349818950CB51DB50193119300E00DBD7C
:100294000CBD089533980E94440100E003BD0FEFA4
:1002A4001FEF0193119310E01BBF5F9BFECF5F987C
:1002B400789462E069BF5FEF5CBFFFCF0D911D9141
:1002C4001F3F39F00CB95E9BFECF1CB95E9BFECF7D
:1002D400189560E069BF1CB95E9BFECF5F9BFECFA3
:0202E4007FCFCA
:00000001FF
