:020000020000FC
:0200000029C015
:040004000C949400C4
:1000540008E00EBF0FE50DBF0F930BE605BD8F9AA9
:1000640097988A98929800E40BBF03E005BF0BE2CF
:1000740003BFB99800E00FBD07E00EBD00E000BD6E
:1000840007E609B900E00BB908E10AB906E800BDC2
:100094000F91E0E6F0E009E2019300E001930DE541
:1000A400019300E001930EEB019300E001930BE553
:1000B400019300E0019301E8019301E0019305E459
:1000C400019301E001930AE3019301E001930BE33F
:1000D400019301E0019303E2019301E0019305E53B
:1000E400019301E0019304E3019301E001930AE227
:1000F400019301E001930DE2019301E0019303E90F
:10010400019301E0019302E1019301E001930EEFF9
:1001140001930EEF0193789410E41ABF40E005E5D3
:1001240003BDFFCF60E000E00CBD0DBDE0E6F0E0F4
:1001340043957894219131916395329600810E3FD5
:1001440011F0329709C08894319600810E3F11F066
:10015400339702C02FEF3FEF0E94D8000E94A30103
:100164001CB50DB5091708F4FBCF181760F4F8CFC8
:100174001CB50DB5031708F4FBCF121748F4F8CFDC
:100184000E94A301F5CF60FFFBCF0CE303BDF0CFCA
:100194000E94D40060FFCECF219131910E94D800FB
:1001A4006395DECF00E00CBD0DBD08950FB70F932E
:1001B4006F934F932F933F93C90100E00FBF3130EA
:1001C400A8F43130A0F4313098F42A3F90F4283C5C
:1001D40088F4263980F4243678F42B3470F42233EE
:1001E40068F4293160F4203058F4A4C00AC018C05F
:1001F40026C034C042C050C05EC06CC07AC088C043
:1002040096C0889404E6801B0027900B617021F44B
:100214008894841B900B8EC08894840F901F8AC08E
:10022400889409E3801B0027900B617021F4889463
:10023400841B900B7FC08894840F901F7BC088948C
:1002440001E3801B0027900B617021F48894841BC8
:10025400900B70C08894840F901F6CC088940AE23D
:10026400801B0027900B617021F48894841B900BF1
:1002740061C08894840F901F5DC0889402E2801B43
:100284000027900B617021F48894841B900B52C05A
:100294008894840F901F4EC088940BE1801B002724
:1002A400900B617021F48894841B900B43C0889454
:1002B400840F901F3FC0889403E1801B0027900B9C
:1002C400617021F48894841B900B34C08894840F4B
:1002D400901F30C088940EE0801B0027900B617043
:1002E40021F48894841B900B25C08894840F901F5C
:1002F40021C088940AE0801B0027900B617021F4D0
:100304008894841B900B16C08894840F901F12C08D
:10031400889406E0801B0027900B617021F4889478
:10032400841B900B07C08894840F901F03C002E0C5
:10033400801B00C03F912F914F916F910F910FBF80
:10034400089504E603BD089505E00CB9739573BDE3
:080354007A3508F418950895AC
:00000001FF
