:020000020000FC
:020000008DC0B1
:10011C0008E00EBF0FE50DBF0F930AE605BD8F9AE1
:10012C0097988A98929804E00BBF03E005BF0BE206
:10013C0003BFB99800E00FBD07E00EBD00E000BDA5
:10014C000FEC09B902E00BB908E10AB906E800BDE9
:10015C00D1980BEC06B901E407B90F91E0E6F0E099
:10016C00A0E6B0E000E00FBF01E112E223E334E4CB
:10017C0045E556E667E778E889E90D931D932D93DD
:10018C003D934D935D936D937D938D93A0E6B0E07D
:10019C000E94DD00A395A3950E94DD00A395A39575
:1001AC000E94DD00A395A3950E94DD0000E014964B
:1001BC000C910E3F11F014971CC0889411960C9161
:1001CC000E3F09F016C0F1E013970D911C91A0E6BB
:1001DC00B0E02D913C91200F311FA0E6B0E02D93A3
:1001EC003C930D910E3F09F0FCCF13970EEF0D933E
:0201FC000D9361
:00000001FF
