:020000020000FC
:0200000029C015
:040040000C945100CB
:1000540008E00EBF0FE50DBF0F930AE605BD8F9AAA
:100064009798B99800E00FBD07E00EBD00E000BD11
:100074000FEC09B902E00BB908E10AB906E800BDC2
:10008400D1980FEC06B901E407B90F91789400E513
:1000940003BD369A67E876E489E69FE5FFCF04B1AD
:1000A40015B1369A3498513039F0061718F40717F9
:1000B40008F0189551E010C0081708F018950917B2
:1000C40008F4189550E006E903BD09B712E00127CA
:1000D40009BF0FEF0CBF18951CB52DB51CB92CB971
:1000E40000E00CBD0DBD189506E403BD19B702E090
:0600F400102719BF18954A
:00000001FF
