:020000020000FC
:0200000029C015
:040040000C947300A9
:1000540008E00EBF0FE50DBF0F930AE605BD8F9AAA
:100064009798B99800E00FBD07E00EBD00E000BD11
:100074000FEC09B902E00BB908E10AB906E800BDC2
:10008400D1980FEC06B901E407B90F91789400E513
:1000940003BD369A60EA78E681E997E85F9BFECF74
:1000A4000CB1013049F0023079F00330A9F004308A
:1000B40039F0053069F0F2CF5F9BFECF6CB1EECF23
:1000C4005F9BFECF8CB1EACF5F9BFECF7CB1E6CFC6
:1000D4005F9BFECF9CB1E2CF5F9BFECFACB1A3BDD3
:1000E400DDCF04B115B1369A3498513039F0061782
:1000F40018F4071708F0189551E008C0081708F01D
:100104001895091708F4189550E018951CB52DB5E5
:0C0114001CB92CB900E00CBD0DBD189505
:00000001FF
