:020000020000FC
:0200000029C015
:040040000C946800B4
:1000540008E00EBF0FE50DBF0F930AE605BD8F9AAA
:100064009798B99800E00FBD07E00EBD00E000BD11
:100074000FEC09B902E00BB908E10AB906E800BDC2
:10008400D1980FEC06B901E407B90F9100E003BD64
:100094003398369A0CB1013009F0FCCF349BFECF73
:1000A4003698349804B10CB914E1602F610F15E04F
:1000B400802F810F15E0902F911B14E1702F711B7D
:1000C400339A00E503BD7894369AFFCF04B115B195
:1000D400369A3498513039F0061718F4071708F097
:1000E400189551E008C0081708F01895091708F486
:1000F400189550E018951CB52DB51CB900E00CBD41
:040104000DBD189580
:00000001FF
