:020000020000FC
:0200000029C015
:1000540008E00EBF0FE50DBF4F93440F2FEA30E0C9
:10006400C90100E00FBF3130A8F43130A0F43130C1
:1000740098F42A3F90F4283C88F4263980F42436F6
:1000840078F42B3470F4223368F4293160F420308E
:1000940058F4B6C00AC01AC02AC03AC04AC05AC0EE
:1000A4006AC07AC08AC09AC0AAC0889404E6801B39
:1000B4000027900B517029F488940027841B900B1F
:1000C4009FC088940027840F901F9AC0889409E3E6
:1000D400801B0027900B517029F488940027841BFF
:1000E400900B8EC088940027840F901F89C0889439
:1000F40001E3801B0027900B517029F4889400279A
:10010400841B900B7DC088940027840F901F78C0B7
:1001140088940AE2801B0027900B517029F488947C
:100124000027841B900B6CC088940027840F901FB9
:1001340067C0889402E2801B0027900B517029F459
:1001440088940027841B900B5BC088940027840F3D
:10015400901F56C088940BE1801B0027900B5170B0
:1001640029F488940027841B900B4AC088940027A4
:10017400840F901F45C0889403E1801B0027900BD7
:10018400517029F488940027841B900B39C08894FB
:100194000027840F901F34C088940EE0801B002732
:1001A400900B517029F488940027841B900B28C06D
:1001B40088940027840F901F23C088940AE0801B32
:1001C4000027900B517029F488940027841B900B0E
:1001D40017C088940027840F901F12C0889406E0EB
:1001E400801B0027900B517029F488940027841BEE
:1001F400900B06C088940027840F901F01C000C094
:060204004F913F912F9184
:00000001FF
