:020000020000FC
:020000005CC0E2
:040040000C947C00A0
:1000BA0008E00EBF0FE50DBF0F9300E001BB04E09F
:1000CA000BBF03E005BF00E000BD0CE009B902E088
:1000DA000BB908ED0AB906E800BD0BEC06B901E256
:1000EA0007B90F917894369A0FEF08BBFFCF04B186
:1000FA0015B10CB9313081F0063920F4043638F0E4
:10010A003498189500EF009508BB31E018950FE078
:10011A00009508BB31E01895063918F0043608F442
:0A012A00189530E0309538BB1895A9
:00000001FF
