:020000020000FC
:0200000029C015
:040004000C94A200B6
:08001C000C9404010C940D0189
:02002800ABC06B
:040040000C947F009D
:1000540008E00EBF0FE50DBF0F930BE605BD8F9AA9
:1000640097988A98929800E40BBF03E005BF0BE2CF
:1000740003BFB99800E00FBD07E00EBD00E000BD6E
:1000840007E609B900E00BB908E10AB906E800BDC2
:10009400D1980FEC06B901E407B90F9100E01AC03A
:1000A4005F9BFECF0CB1053509F0FACF5F9BFECF05
:1000B4000CB1003129F0013159F0023169F0F0CF6F
:1000C4005F9BFECF0CB1069515E0019F800102C035
:1000D40000E000C003BDE4CF00E503BDE0E6F0E0CE
:1000E40040E0829BFECF8299FECF00E00DBD0CBDA7
:1000F40010E41ABF7894369AFFCF04B115B12130B9
:1001040049F0003A18F4083608F00EC021E00E94C5
:1001140099000AC0013908F007C0073808F404C080
:1001240020E00E94990000C0369A349818950CB5C6
:100134001DB5019311930CB900E00CBD0DBD0895DC
:1001440001E00CB9413068F50E94990033980EEF34
:100154001EEF019311937E7FE0E6F0E009B712E011
:10016400012709BF0CE70CBF00E003BD01910CB9E6
:1001740071FFFECF70E001910CB9FACF7FEF1895B3
:10018400789400E00CBD0DBD08E109BF02E00FBD8D
:100194000FE10EBD0FEF0ABD0BBD0FEF08BD09BD8A
:1001A40061E04395423050F5E0E6F0E02191319171
:1001B4002CB96395329600810E3F11F0329713C02B
:1001C4008894319600810E3F11F033970CC0339719
:1001D40001911081E0E6F0E021913081200F311F80
:1001E400E0E6F0E032960E9421010E94DE019BBD10
:1001F4008ABD39BD28BD423008F4FFCF18950E944E
:10020400DE01189503E00CB960FFF9CF0E94F001FC
:100214000CE303BD189504E00CB90E941D0160FFB6
:10022400C5CF219131910E94210163959BBD8ABD67
:1002340039BD28BD189500E00CBD0DBD08950FB75C
:100244000F936F934F932F933F93440FC90100E093
:100254000FBF3130A8F43130A0F4313098F42A3F84
:1002640090F4283C88F4263980F4243678F42B342E
:1002740070F4223368F4293160F4203058F495C0C6
:100284000AC018C026C034C042C050C05EC06CC092
:100294007AC088C089C0889404E6801B0027900B2C
:1002A400617021F48894841B900B7FC08894840F20
:1002B400901F7BC0889409E3801B0027900B61701A
:1002C40021F48894841B900B70C08894840F901F31
:1002D4006CC0889401E3801B0027900B617021F4AB
:1002E4008894841B900B61C08894840F901F5DC018
:1002F40088940AE2801B0027900B617021F4889493
:10030400841B900B52C08894840F901F4EC0889415
:1003140002E2801B0027900B617021F48894841BF7
:10032400900B43C08894840F901F3FC088940BE1C6
:10033400801B0027900B617021F48894841B900B20
:1003440034C08894840F901F30C0889403E1801BCC
:100354000027900B617021F48894841B900B25C0B6
:100364008894840F901F21C088940EE0801B00277E
:10037400900B617021F48894841B900B16C08894B0
:10038400840F901F12C088940AE0801B0027900BF2
:10039400617021F48894841B900B07C08894840FA7
:1003A400901F03C002C001C000C03F912F914F9124
:1003B4006F910F910FBF089551FD089509B712E091
:1003C400012709BF0CE70CBF7CE35160089505E0E9
:1003D4000CB9739573BD743608F4189519B702E017
:0803E400102719BF5E7F089588
:00000001FF
