:020000020000FC
:0200000029C015
:040004000C94B9009F
:02002800D3C142
:040040000C94960086
:1000540008E00EBF0FE50DBF0F930BE605BD8F9AA9
:1000640097988A98929800E40BBF03E005BFB9986B
:1000740000E00FBD07E00EBD00E000BD07E609B9D2
:1000840000E00BB908E10AB906E800BDD1980FEC0D
:1000940006B901E407B90F9100E01AC05F9BFECFD7
:1000A4000CB1053509F0FACF5F9BFECF0CB10031DE
:1000B40029F0013159F0023179F0F0CF5F9BFECF86
:1000C4000CB1069515E0019F800102C000E000C05C
:1000D40003BDE4CF3398369A349BFECF369A3498D6
:1000E400349BFECF04B10CB93698349811E1602FDB
:1000F400610F15E0802F810F15E0902F911B14E103
:10010400702F711B339AE0E6F0E040E005E503BD93
:10011400829BFECF8299FECF00E00DBD0CBD10E4A2
:100124001ABF7894369AFFCF04B115B1213049F043
:10013400061718F4071708F00EC021E00E94B0005B
:100144000AC0081708F007C0091708F404C020E023
:100154000E94B00000C0369A349818950CB51DB5AD
:100164000CB90193119300E00CBD0DBD089541300D
:1001740068F40E94B00033980EEF1EEF01931193C0
:1001840000E00CBD0DBD60E0E0E6F0E04395219198
:1001940031912CB963950FB70F9300810CB90E3FC1
:1001A40009F017C08894319600810E3F11F0319701
:1001B40010C000E00CB9339701911081E0E6F0E043
:1001C400219130818894200F311FE0E6F0E03296CF
:1001D40063950F910FBF0E941A010E94E5011CB59F
:1001E4000DB5091708F4FBCF181768F4F8CF1CB540
:1001F4000DB5031710F4FBCF1895121758F4F7CF69
:100204000E94E501F4CF60FFFBCF0E94ED0105E5FC
:1002140003BDEDCF0E94160160FFB9CF219131914A
:100224000E941A016395DBCF00E00CBD0DBD08955B
:100234000FB70F936F934F932F933F93C90100E030
:100244000FBF3130A8F43130A0F4313098F42A3F94
:1002540090F4283C88F4263980F4243678F42B343E
:1002640070F4223368F4293160F4203058F4A4C0C7
:100274000AC018C026C034C042C050C05EC06CC0A2
:100284007AC088C096C0889404E6801B0027900B2F
:10029400617021F48894841B900B8EC08894840F21
:1002A400901F8AC0889409E3801B0027900B61701B
:1002B40021F48894841B900B7FC08894840F901F32
:1002C4007BC0889401E3801B0027900B617021F4AC
:1002D4008894841B900B70C08894840F901F6CC00A
:1002E40088940AE2801B0027900B617021F48894A3
:1002F400841B900B61C08894840F901F5DC0889408
:1003040002E2801B0027900B617021F48894841B07
:10031400900B52C08894840F901F4EC088940BE1B8
:10032400801B0027900B617021F48894841B900B30
:1003340043C08894840F901F3FC0889403E1801BBE
:100344000027900B617021F48894841B900B34C0B7
:100354008894840F901F30C088940EE0801B00277F
:10036400900B617021F48894841B900B25C08894B1
:10037400840F901F21C088940AE0801B0027900BF3
:10038400617021F48894841B900B16C08894840FA8
:10039400901F12C0889406E0801B0027900B6170A8
:1003A40021F48894841B900B07C08894840F901FB9
:1003B40003C001E0801B00C03F912F914F916F91CA
:1003C4000F910FBF089508E703BD0895739573BD9A
:0C03D400743608F4189500E009BF089585
:00000001FF
