:020000020000FC
:0200000029C015
:040004000C94B9009F
:040040000C94960086
:1000540008E00EBF0FE50DBF0F930BE605BD8F9AA9
:1000640097988A98929800E40BBF03E005BFB9986B
:1000740000E00FBD07E00EBD00E000BD07E609B9D2
:1000840000E00BB908E10AB906E800BDD1980FEC0D
:1000940006B901E407B90F9100E01AC05F9BFECFD7
:1000A4000CB1053509F0FACF5F9BFECF0CB10031DE
:1000B40029F0013159F0023179F0F0CF5F9BFECF86
:1000C4000CB1069515E0019F800102C000E000C05C
:1000D40003BDE4CF3398369A349BFECF369A3498D6
:1000E400349BFECF04B10CB93698349811E1602FDB
:1000F400610F15E0802F810F15E0902F911B14E103
:10010400702F711B339AE0E6F0E040E00FE503BD89
:10011400829BFECF8299FECF00E00DBD0CBD10E4A2
:100124001ABF7894369AFFCF04B115B1213049F043
:10013400061718F4071708F00EC021E00E94B0005B
:100144000AC0081708F007C0091708F404C020E023
:100154000E94B00000C0369A349818950CB51DB5AD
:100164000CB90193119300E00CBD0DBD089541300D
:1001740068F40E94B00033980EEF1EEF01931193C0
:1001840000E00CBD0DBD60E0E0E6F0E04395219198
:1001940031912CB963950FB70F9300810CB90E3FC1
:1001A40009F015C08894319600810E3F11F0319703
:1001B4000EC0339701911081E0E6F0E02191308187
:1001C4008894200F311FE0E6F0E0329663950F919A
:1001D4000FBF0E9416010E9419021CB50DB5091724
:1001E40008F4FBCF181768F4F8CF1CB50DB5031746
:1001F40010F4FBCF1895121748F4F7CF0E94190298
:10020400F4CF60FFFBCF0BE403BDEFCF0E941201DC
:1002140060FFBDCF219131910E9416016395DDCF1E
:1002240000E00CBD0DBD08950FB70F936F934F936E
:100234002F933F93C90100E00FBF323040F53230B5
:1002440028F5313010F53130A8F43130A0F43130D4
:1002540098F42A3F90F4283C88F4263980F4243614
:1002640078F42B3470F4223368F4293160F42030AC
:1002740058F4D6C03CC04AC058C066C074C082C0DE
:1002840090C09EC0ACC0BAC0C8C012C020C000C0DC
:1002940088940FEF801B0027900B9150617021F41C
:1002A4008894841B900BBCC08894840F901FB8C0A2
:1002B40088940FEF801B0027900B617021F48894C1
:1002C400841B900BADC08894840F901FA9C08894A0
:1002D40006E9801B0027900B9150617021F48894EB
:1002E400841B900B9DC08894840F901F99C08894A0
:1002F4000CE8801B0027900B617021F48894841B08
:10030400900B8EC08894840F901F8AC0889400E557
:10031400801B0027900B617021F48894841B900B40
:100324007FC08894840F901F7BC088940CE3801B4B
:100334000027900B617021F48894841B900B70C08B
:100344008894840F901F6CC0889408E2801B002757
:10035400900B617021F48894841B900B61C0889485
:10036400840F901F5DC088940EE1801B0027900BC2
:10037400617021F48894841B900B52C08894840F7C
:10038400901F4EC0889404E1801B0027900B61707D
:1003940021F48894841B900B43C08894840F901F8D
:1003A4003FC0889404E1801B0027900B617021F406
:1003B4008894841B900B34C08894840F901F30C0A1
:1003C40088940FE0801B0027900B617021F48894BF
:1003D400841B900B25C08894840F901F21C088949F
:1003E40005E0801B0027900B617021F48894841B26
:1003F400900B16C08894840F901F12C0889404E058
:10040400801B0027900B617021F48894841B900B4F
:1004140007C08894840F901F03C001E0801B00C0B4
:100424003F912F914F916F910F910FBF089508E75E
:0404340003BD089567
:00000001FF
