:020000020000FC
:0200000029C015
:040040000C946C00B0
:1000540008E00EBF0FE50DBF0F938A98929800E455
:100064000BBF03E005BF0BE203BFB99800E00FBD6F
:1000740007E00EBD00E000BD0FEC09B902E00BB9CA
:1000840008E10AB906E800BD0F913398369A349B0B
:10009400FECF3698349804B11CE1010F502F15E0BF
:1000A400010F602F15E0011B702F1CE1011B802F35
:1000B400339A00E503BDE0E6F0E040E0829BFECF2A
:1000C4008299FECF00E00DBD0CBD10E41ABF7894F8
:0600D400369AFFCF1895DB
:00000001FF
