:020000020000FC
:020000005CC0E2
:040040000C94860096
:1000BA0008E00EBF0FE50DBF0F930AE605BD00E08D
:1000CA0001BB04E00BBF03E005BFB99800E00FBD18
:1000DA0007E00EBD00E000BD0FEC09B902E00BB964
:1000EA0008ED0AB906E800BD0BEC06B901E207B94A
:1000FA000F9130E07894369A0CE403BD0AE605BD08
:10010A00FFCF04B115B1313061F00F3F24F4003054
:10011A002CF0349818950EC031E018950BC031E0D8
:10012A0018950F3F2CF034F0003014F41CF4189595
:10013A0030E008951CB52DB51CB92CB900E00CBDF2
:04014A000DBD08954A
:00000001FF
